:040000004DEF09F0C7
:101000000000000E2B6E2B502D0FD96EDA6ADF50C8
:10101000F80B0209DF6E2B502D0FD96EDA6ADF9CB8
:101020002B502D0FD96EDA6ADF9E2BC027F02B5084
:101030002D0FD96EDA6A274627462746DF50271834
:10104000C70B2718DF6E2B2A070E2B642AEF08F038
:101050002CEF08F003EF08F0000E1F6E020E2CECD0
:1010600009F02C6EFF0E1F6E020E0BEC09F02C6EB9
:101070001A0E286E5E0E276E6E0EE82EFED7272EF5
:10108000FCD7282EFAD700D0030E296E29502D0F39
:101090001F6E000E206E93EC08F02C6E2950340861
:1010A0001F6E000E206E93EC08F02C6E030E286E5F
:1010B0008A0E276E560EE82EFED7272EFCD7282E36
:1010C000FAD7290629BE69EF08F067EF08F046EF66
:1010D00008F0000E2A6E2A502D0F1F6E010E206E92
:1010E00093EC08F02C6E2A5034081F6E010E206E0F
:1010F00093EC08F02C6E030E286E8A0E276E560EA7
:10110000E82EFED7272EFCD7282EFAD72A2A030E40
:101110002A648DEF08F08FEF08F06BEF08F044EFD2
:1011200008F000EF00F0010E266E1F50D8A49BEFD0
:1011300008F09DEF08F0F4EF08F0000E266E09EFBE
:1011400009F01F50D96EDA6ADF30E832E832070B57
:10115000216E010E226E212AB0EF08F0D8902236BF
:10116000212EAEEF08F02250FF0A236E1F50D96ED9
:10117000DA6ADF50070B020DF3500B0FD96EDA6AF3
:10118000DECF24F0DDCF25F024C0D9FF25C0DAFF63
:101190002350DF1609EF09F01F50D96EDA6ADF30ED
:1011A000E832E832070B216E010E226E212ADBEFB6
:1011B00008F0D8902236212ED9EF08F01F50D96EB2
:1011C000DA6ADF50070B020DF3500B0FD96EDA6AA3
:1011D000DECF23F0DDCF24F023C0D9FF24C0DAFF17
:1011E0002250DF1209EF09F02050216E226A2250AE
:1011F000000AD8B4FEEF08F09DEF08F02150000A75
:10120000D8B4A1EF08F0010AD8B4CCEF08F09DEFF4
:1012100008F026501200236E010E226E040E236485
:1012200014EF09F016EF09F01AEF09F0000E226E24
:101230002AEF09F02350020DF3500B0FD96EDA6A32
:10124000DECF20F0DDCF21F020C0D9FF21C0DAFFB2
:101250001FC0DFFF22501200236E010E226E040E0B
:10126000236435EF09F037EF09F03BEF09F0000E8A
:10127000226E4BEF09F02350020DF350150FD96E7B
:10128000DA6ADECF20F0DDCF21F020C0D9FF21C007
:10129000DAFF1FC0DFFF22501200D00EF66E120ED2
:1012A000F76E000EF86E00EE01F010EE1EF0090071
:1012B000F5CFEEFFE550E150FAE100EE2CF0090E1B
:1012C000EE6AE806FDE1000EF86E000101EF08F09D
:1012D000800F810F820F830F840F890F8A0F8B0F6E
:0E12E0008C0F8D0F920F930F940F950F960F9A
:020000040030CA
:0E000000FF02091EFF8181FF0FC00FE00F40BD
:00000001FF
