:0400000037EF0AF0DC
:101000000000010E266E2050D8B409EF08F00BEF57
:1010100008F029EF08F02050D96EDA6ADF30E832A4
:10102000E832070B216E080E216019EF08F01BEF64
:1010300008F029EF08F02050D96EDA6ADF50070B6C
:10104000216E040E216427EF08F029EF08F080EFED
:1010500008F0000E266E96EF08F02050D96EDA6A7E
:10106000DF30E832E832070B216E010E226E212AB2
:101070003CEF08F0D8902236212E3AEF08F02250AB
:10108000FF0A236E2050D96EDA6ADF50070B020D7B
:10109000F350150FD96EDA6ADECF24F0DDCF25F0DC
:1010A00024C0D9FF25C0DAFF2350DF1696EF08F0E1
:1010B0002050D96EDA6ADF30E832E832070B216E51
:1010C000010E226E212A67EF08F0D8902236212ED9
:1010D00065EF08F02050D96EDA6ADF50070B020D79
:1010E000F350150FD96EDA6ADECF23F0DDCF24F08E
:1010F00023C0D9FF24C0DAFF2250DF1296EF08F098
:101100002050D96EDA6ADFBC88EF08F08BEF08F068
:10111000010E8CEF08F0000E000AD8B42DEF08F095
:10112000010AD8B458EF08F029EF08F02650120051
:10113000010E276E2050D8A4A0EF08F0A2EF08F00F
:10114000F9EF08F0000E276E0EEF09F02050D96E6F
:10115000DA6ADF30E832E832070B226E010E236EC6
:10116000222AB5EF08F0D8902336222EB3EF08F0EC
:101170002350FF0A246E2050D96EDA6ADF50070B25
:10118000020DF3500B0FD96EDA6ADECF25F0DDCFFA
:1011900026F025C0D9FF26C0DAFF2450DF160EEF57
:1011A00009F02050D96EDA6ADF30E832E832070BF6
:1011B000226E010E236E222AE0EF08F0D89023362B
:1011C000222EDEEF08F02050D96EDA6ADF50070BCE
:1011D000020DF3500B0FD96EDA6ADECF24F0DDCFAB
:1011E00025F024C0D9FF25C0DAFF2350DF120EEF0F
:1011F00009F02150226E236A2350000AD8B403EF6D
:1012000009F0A2EF08F02250000AD8B4A6EF08F0C7
:10121000010AD8B4D1EF08F0A2EF08F0275012006D
:101220002650D8B416EF09F018EF09F036EF09F0A0
:101230002650D96EDA6ADF30E832E832070B276EC3
:10124000080E276026EF09F028EF09F036EF09F0C5
:101250002650D96EDA6ADF50070B276E040E27641A
:1012600034EF09F036EF09F03AEF09F0000E286E7E
:1012700065EF09F030C029F02650D96EDA6ADF50E8
:10128000070B276E29502718F80B2718296E2650B0
:10129000D96EDA6ADF30E832E832070B276E27466C
:1012A0002746274629502718C70B2718296E299C3F
:1012B0002650D96EDA6ADFAC02D0298E01D0299E81
:1012C000290E206EBEEC09F0286E285012002A501C
:1012D000D8B46DEF09F06FEF09F08DEF09F02A50E7
:1012E000D96EDA6ADF30E832E832070B2B6E080E6F
:1012F0002B607DEF09F07FEF09F08DEF09F02A50A8
:10130000D96EDA6ADF50070B2B6E040E2B648BEF5D
:1013100009F08DEF09F091EF09F0000E2C6EBCEF93
:1013200009F033C02DF02A50D96EDA6ADF50070B6E
:101330002B6E2D502B18F80B2B182D6E2A50D96EB2
:10134000DA6ADF30E832E832070B2B6E2B462B4689
:101350002B462D502B18C70B2B182D6E2D9C2A5069
:10136000D96EDA6ADFAC02D02D8E01D02D9E2D0E03
:10137000286E18EC0AF02C6E2C501200010E256E0F
:101380002050D8A4C6EF09F0C8EF09F0CCEF09F05F
:10139000000E256EF2EF09F02050D96EDA6ADF30C8
:1013A000E832E832070B216E010E226E212ADBEFB4
:1013B00009F0D8902236212ED9EF09F02050D96EAD
:1013C000DA6ADF50070B020DF3500B0FD96EDA6AA1
:1013D000DECF23F0DDCF24F023C0D9FF24C0DAFF15
:1013E0002250DF1A25501200340E2A6E67EC09F0E5
:1013F000366E1F0E2A6E67EC09F0356E340E266EBF
:1014000010EC09F0366E1F0E266E10EC09F0356EEA
:101410001A0E2F6E5E0E2E6E6E0EE82EFED72E2E3C
:10142000FCD72F2EFAD700D0FEEF09F000EF00F026
:101430002850D8A41EEF0AF020EF0AF024EF0AF09B
:10144000000E296E35EF0AF028C020F001EC08F0FC
:10145000296E28C020F02850D96EDA6A000EDFBE4F
:10146000010E216E98EC08F0296E29501200A20E90
:10147000F66E140EF76E000EF86E00EE01F010EE30
:101480001FF00900F5CFEEFFE550E150FAE1346AB4
:10149000336A326A316A306A000EF86E0001F4EF86
:1014A00009F0800F810F820F830F840F890F8A0F3D
:1014B0008B0F8C0F8D0F920F930F940F950F960F2C
:0114C0000823
:020000040030CA
:0E000000FF02091EFF8181FF0FC00FE00F40BD
:00000001FF
