:0400000013EF0AF000
:101000000000010E266E2050D8B409EF08F00BEF57
:1010100008F029EF08F02050D96EDA6ADF30E832A4
:10102000E832070B216E080E216019EF08F01BEF64
:1010300008F029EF08F02050D96EDA6ADF50070B6C
:10104000216E040E216427EF08F029EF08F080EFED
:1010500008F0000E266E96EF08F02050D96EDA6A7E
:10106000DF30E832E832070B216E010E226E212AB2
:101070003CEF08F0D8902236212E3AEF08F02250AB
:10108000FF0A236E2050D96EDA6ADF50070B020D7B
:10109000F350150FD96EDA6ADECF24F0DDCF25F0DC
:1010A00024C0D9FF25C0DAFF2350DF1696EF08F0E1
:1010B0002050D96EDA6ADF30E832E832070B216E51
:1010C000010E226E212A67EF08F0D8902236212ED9
:1010D00065EF08F02050D96EDA6ADF50070B020D79
:1010E000F350150FD96EDA6ADECF23F0DDCF24F08E
:1010F00023C0D9FF24C0DAFF2250DF1296EF08F098
:101100002050D96EDA6ADFBC88EF08F08BEF08F068
:10111000010E8CEF08F0000E000AD8B42DEF08F095
:10112000010AD8B458EF08F029EF08F02650120051
:10113000010E276E2050D8A4A0EF08F0A2EF08F00F
:10114000F9EF08F0000E276E0EEF09F02050D96E6F
:10115000DA6ADF30E832E832070B226E010E236EC6
:10116000222AB5EF08F0D8902336222EB3EF08F0EC
:101170002350FF0A246E2050D96EDA6ADF50070B25
:10118000020DF3500B0FD96EDA6ADECF25F0DDCFFA
:1011900026F025C0D9FF26C0DAFF2450DF160EEF57
:1011A00009F02050D96EDA6ADF30E832E832070BF6
:1011B000226E010E236E222AE0EF08F0D89023362B
:1011C000222EDEEF08F02050D96EDA6ADF50070BCE
:1011D000020DF3500B0FD96EDA6ADECF24F0DDCFAB
:1011E00025F024C0D9FF25C0DAFF2350DF120EEF0F
:1011F00009F02150226E236A2350000AD8B403EF6D
:1012000009F0A2EF08F02250000AD8B4A6EF08F0C7
:10121000010AD8B4D1EF08F0A2EF08F0275012006D
:10122000000E2F6E2F50300FD96EDA6ADF9C2F50D0
:10123000300FD96EDA6ADF9E2FC02CF02F50300F9E
:10124000D96EDA6A2C462C462C46DF502C18C70B78
:101250002C18DF6E2F50300FD96EDA6ADF50F80B82
:101260000209DF6E2F50300F2A6EC7EC09F02F2ACB
:10127000070E2F643EEF09F040EF09F012EF09F07E
:10128000000E2E6E2E50300F266E96EC09F01F6E5B
:10129000020E2D6E450E2C6EAA0EE82EFED72C2EB9
:1012A000FCD72D2EFAD72E2A070E2E645AEF09F0FE
:1012B0005CEF09F042EF09F040EF09F000EF00F0B9
:1012C000010E256E2050D8A468EF09F06AEF09F0EE
:1012D0006EEF09F0000E256E94EF09F02050D96EE4
:1012E000DA6ADF30E832E832070B216E010E226E37
:1012F000212A7DEF09F0D8902236212E7BEF09F0CC
:101300002050D96EDA6ADF50070B020DF3500B0F35
:10131000D96EDA6ADECF23F0DDCF24F023C0D9FF07
:1013200024C0DAFF2250DF1A255012002650D8B40C
:101330009CEF09F09EEF09F0BCEF09F02650D96E42
:10134000DA6ADF50070B276E050E2760AAEF09F057
:10135000ACEF09F0BCEF09F02650D96EDA6ADF3045
:10136000E832E832070B276E070E2764BAEF09F060
:10137000BCEF09F0C0EF09F0000E286EC5EF09F0D0
:1013800026C020F060EC09F0286E285012002A5088
:10139000D8B4CDEF09F0CFEF09F0EDEF09F02A5006
:1013A000D96EDA6ADF50070B2B6E050E2B60DBEF70
:1013B00009F0DDEF09F0EDEF09F02A50D96EDA6A95
:1013C000DF30E832E832070B2B6E070E2B64EBEFB1
:1013D00009F0EDEF09F0EFEF09F0F3EF09F02AC0A3
:1013E00028F0F4EC09F012002850D8A4FAEF09F024
:1013F000FCEF09F000EF0AF0000E296E11EF0AF081
:1014000028C020F001EC08F0296E28C020F02850F8
:10141000D96EDA6A000EDFBE010E216E98EC08F07C
:10142000296E295012005C0EF66E140EF76E000E37
:10143000F86E00EE01F010EE1FF00900F5CFEEFFA0
:10144000E550E150FAE100EE30F0080EEE6AE806F1
:10145000FDE1000EF86E000110EF09F0800F810F22
:10146000820F830F840F890F8A0F8B0F8C0F8D0FC4
:0B147000920F930F940F950F960F0141
:020000040030CA
:0E000000FF02091EFF8181FF0FC00FE00F40BD
:00000001FF
