:040000009DEF09F077
:101000000000010E2D6E2750D8B409EF08F00BEF49
:1010100008F029EF08F02750D96EDA6ADF30E8329D
:10102000E832070B286E080E286019EF08F01BEF56
:1010300008F029EF08F02750D96EDA6ADF50070B65
:10104000286E040E286427EF08F029EF08F080EFDF
:1010500008F0000E2D6E96EF08F02750D96EDA6A70
:10106000DF30E832E832070B286E010E296E282A9D
:101070003CEF08F0D8902936282E3AEF08F0295096
:10108000FF0A2A6E2750D96EDA6ADF50070B020D6D
:10109000F350150FD96EDA6ADECF2BF0DDCF2CF0CE
:1010A0002BC0D9FF2CC0DAFF2A50DF1696EF08F0CC
:1010B0002750D96EDA6ADF30E832E832070B286E43
:1010C000010E296E282A67EF08F0D8902936282EBD
:1010D00065EF08F02750D96EDA6ADF50070B020D72
:1010E000F350150FD96EDA6ADECF2AF0DDCF2BF080
:1010F0002AC0D9FF2BC0DAFF2950DF1296EF08F083
:101100002750D96EDA6ADFBC88EF08F08BEF08F061
:10111000010E8CEF08F0000E000AD8B42DEF08F095
:10112000010AD8B458EF08F029EF08F02D5012004A
:101130002E50D8B49EEF08F0A0EF08F0C6EF08F0EC
:101140002F50D8B4A6EF08F0A8EF08F0C6EF08F0CB
:101150002E50D96EDA6ADF30E832E832070B306E93
:10116000080E3060B6EF08F0B8EF08F0C6EF08F0F0
:101170002E50D96EDA6ADF50070B306E040E3064E1
:10118000C4EF08F0C6EF08F0CAEF08F0000E326EA8
:101190000CEF09F02EC027F0330E286E0EEC09F08C
:1011A000326EF2EF08F03304D8A4D9EF08F0DBEF89
:1011B00008F0E1EF08F02F50D96EDA6ADF6A0CEF21
:1011C00009F02F50D96EDA6A010EDF6E0CEF09F0CC
:1011D0003350D8A4EEEF08F0F0EF08F0E1EF08F09C
:1011E000DBEF08F02E50D96EDA6A020ED926DF50F6
:1011F000306E316A3150000AD8B401EF09F0C6EF01
:1012000008F03050000AD8B4D3EF08F0010AD8B47F
:10121000E8EF08F0C6EF08F032501200010E2D6E14
:101220002750D8B416EF09F018EF09F020EF09F0B5
:101230002850D8A41EEF09F020EF09F024EF09F0A0
:10124000000E2D6E4EEF09F02850D96EDA6A275045
:10125000E16EE26AE730E832E832070B296E275088
:10126000E16EE26AE750070B020DF350010FE16EE9
:10127000E26AE6CF2AF0E5CF2BF02AC0E1FF2BC0CF
:10128000E2FFE7502C6E292A48EF09F0D8902C3263
:10129000292E46EF09F02C50010BDF6E2D50120065
:1012A0002E50D8B456EF09F058EF09F076EF09F058
:1012B0002E50D96EDA6ADF30E832E832070B2F6E33
:1012C000080E2F6066EF09F068EF09F076EF09F07D
:1012D0002E50D96EDA6ADF50070B2F6E040E2F6482
:1012E00074EF09F076EF09F07AEF09F0000E306E36
:1012F0007FEF09F02EC027F001EC08F0306E30507F
:101300001200220E2E6E50EC09F0356E1F0E2E6E5E
:1013100050EC09F0346E220E2E6E260E2F6E98ECD5
:1013200008F0356E1F0E2E6E250E2F6E98EC08F00D
:10133000346E8BEF09F000EF00F0640EF66E130EC2
:10134000F76E000EF86E00EE01F010EE26F00900C8
:10135000F5CFEEFFE550E150FAE1000EF86E000126
:1013600081EF09F0800F810F820F830F840F890FA7
:101370008A0F8B0F8C0F8D0F920F930F940F950F79
:0A138000960F4B010143010001012B
:020000040030CA
:0E000000FF02091EFF8181FF0FC00FE00F40BD
:00000001FF
